S02600004F7070676176655F372E355F70696E4368616E6765496E746572727570742E737265637A
S11300000C9434000C943E000C943E000C944F006D
S11300100C943E000C943E000C943E000C943E0064
S11300200C943E000C943E000C943E000C943E0054
S11300300C943E000C943E000C943E000C943E0044
S11300400C943E000C943E000C943E000C943E0034
S11300500C943E000C943E000C943E000C943E0024
S11300600C943E000C943E0011241FBECFEFD4E04C
S1130070DEBFCDBF0E9440000C946E000C940000C3
S11300802098289A569AE8E6F0E08081816080837F
S1130090EBE6F0E08081816080837894FFCF1F924B
S11300A00F920FB60F9211242F938F939F93189949
S11300B004C09BB180E489278BB92FEF83EF91E0D3
S11300C0215080409040E1F700C000009F918F9143
S11300D02F910F900FBE0F901F901895F894FFCF9B
S9030000FC
