:100000000C9434000C943E000C943E000C9452006E
:100010000C943E000C943E000C943E000C943E0068
:100020000C943E000C943E000C943E000C943E0058
:100030000C943E000C943E000C943E000C943E0048
:100040000C943E000C943E000C943E000C943E0038
:100050000C943E000C943E000C943E000C943E0028
:100060000C943E000C943E0011241FBECFEFD4E050
:10007000DEBFCDBF0E944E000C946E000C940000B9
:100080002098289AE8E6F0E0808181608083EBE6A2
:10009000F0E080818160808378940895569A0E9470
:1000A0004000FFCF1F920F920FB60F9211248F9333
:1000B0009F93F8948FE19EE40197F1F700C0000050
:1000C0007894189904C09BB180E489278BB99F91DB
:1000D0008F910F900FBE0F901F901895F894FFCF3F
:00000001FF
