:100000000C9434000C943E000C943E000C944F0071
:100010000C943E000C943E000C943E000C943E0068
:100020000C943E000C943E000C943E000C943E0058
:100030000C943E000C943E000C943E000C943E0048
:100040000C943E000C943E000C943E000C943E0038
:100050000C943E000C943E000C943E000C943E0028
:100060000C943E000C943E0011241FBECFEFD4E050
:10007000DEBFCDBF0E9440000C946B000C940000CA
:100080002098289A569AE8E6F0E080818160808383
:10009000EBE6F0E08081816080837894FFCF1F924F
:1000A0000F920FB60F9211248F939F93F894189983
:1000B00004C09BB180E489278BB98FE19EE401974E
:1000C000F1F700C0000078949F918F910F900FBEC0
:0A00D0000F901F901895F894FFCFD1
:00000001FF
