:100000000C9434000C9446000C9446000C9446006A
:100010000C9446000C9446000C9446000C94460048
:100020000C9446000C9446000C9446000C94460038
:100030000C9446000C9446000C9446000C94460028
:100040000C94BE000C9446000C9446000C944600A0
:100050000C9446000C9478000C9446000C944600D6
:100060000C9446000C94460011241FBECFEFD4E040
:10007000DEBFCDBF21E0A0E0B1E001C01D92AC30F9
:10008000B207E1F70E9473000C940B030C9400007C
:10009000389880E480937C008FEE80937A000895F6
:1000A00080E48AB983E88093800081E080936E00C9
:1000B000789485E085BD20E030E048EC52E4609122
:1000C00008017091090180910A0190910B010E9431
:1000D000460120E030E04FE753E40E949E020E9478
:1000E000B80167BD08950E9448000E945000FFCFEC
:1000F0001F920F920FB60F9211242F933F934F939D
:100100005F936F937F938F939F93AF93BF93EF937F
:10011000FF93609178007091790080E090E00E94F8
:10012000E7016093000170930101809302019093B5
:10013000030120E030EC4FE754E40E94460120E048
:1001400030E048EC52E40E949E02609308017093F4
:10015000090180930A0190930B01FF91EF91BF91E8
:10016000AF919F918F917F916F915F914F913F914F
:100170002F910F900FBE0F901F9018951F920F9206
:100180000FB60F921124CF92DF92EF92FF922F932E
:100190003F934F935F936F937F938F939F93AF930F
:1001A000BF93EF93FF93C0900801D0900901E090B6
:1001B0000A01F0900B0120E030E0A901C701B6016F
:1001C0000E94410188234CF4109208011092090109
:1001D00010920A0110920B0116C020E030E048ECAA
:1001E00052E4C701B6010E949902181664F480E037
:1001F00090E0A8ECB2E48093080190930901A093E9
:100200000A01B0930B01609108017091090180917E
:100210000A0190910B019B01AC010E949E0220E01B
:1002200030E048EC52E40E94460160930401709370
:100230000501809306019093070120E030E048EC2F
:1002400052E40E94460120E030E04FE753E40E9470
:100250009E020E94B80167BDFF91EF91BF91AF91DF
:100260009F918F917F916F915F914F913F912F91CE
:10027000FF90EF90DF90CF900F900FBE0F901F90E8
:1002800018950E94240208F481E008950E945A0102
:100290000C945F020E94580258F00E94510240F0F4
:1002A00029F45F3F29F00C94480251110C949302F9
:1002B0000C944E020E94700268F39923B1F3552307
:1002C00091F3951B550BBB27AA2762177307840769
:1002D00038F09F5F5F4F220F331F441FAA1FA9F3FF
:1002E00035D00E2E3AF0E0E832D091505040E695ED
:1002F000001CCAF72BD0FE2F29D0660F771F881F4E
:10030000BB1F261737074807AB07B0E809F0BB0B40
:10031000802DBF01FF2793585F4F3AF09E3F510554
:1003200078F00C9448020C9493025F3FE4F3983EFB
:10033000D4F3869577956795B795F7959F5FC9F73D
:10034000880F911D9695879597F90895E1E0660FBE
:10035000771F881FBB1F621773078407BA0720F037
:10036000621B730B840BBA0BEE1F88F7E0950895A0
:100370000E94780288F09F5798F0B92F9927B751BB
:10038000B0F0E1F0660F771F881F991F1AF0BA9539
:10039000C9F714C0B13091F00E949202B1E0089503
:1003A0000C949202672F782F8827B85F39F0B93FF5
:1003B000CCF3869577956795B395D9F73EF49095EC
:1003C0008095709561957F4F8F4F9F4F0895E8946A
:1003D00009C097FB3EF490958095709561957F4F8D
:1003E0008F4F9F4F9923A9F0F92F96E9BB2793953B
:1003F000F695879577956795B795F111F8CFFAF44B
:10040000BB0F11F460FF1BC06F5F7F4F8F4F9F4F7B
:1004100016C0882311F096E911C0772321F09EE8D9
:10042000872F762F05C0662371F096E8862F70E03F
:1004300060E02AF09A95660F771F881FDAF7880F19
:100440009695879597F90895990F0008550FAA0B6F
:10045000E0E8FEEF16161706E807F907C0F01216D7
:100460001306E407F50798F0621B730B840B950BDA
:1004700039F40A2661F0232B242B252B21F408952F
:100480000A2609F4A140A6958FEF811D811D0895CC
:1004900097F99F6780E870E060E008959FEF80EC37
:1004A000089500240A9416161706180609060895DA
:1004B00000240A9412161306140605060895092E40
:1004C0000394000C11F4882352F0BB0F40F4BF2BAF
:1004D00011F460FF04C06F5F7F4F8F4F9F4F0895EF
:1004E00057FD9058440F551F59F05F3F71F04795E5
:1004F000880F97FB991F61F09F3F79F087950895CA
:10050000121613061406551FF2CF4695F1DF08C0E8
:10051000161617061806991FF1CF86957105610505
:1005200008940895E894BB2766277727CB0197F9AD
:1005300008950E94240208F48FEF08950E94B102EA
:100540000C945F020E94510238F00E94580220F081
:10055000952311F00C9448020C944E0211240C9433
:1005600093020E94700270F3959FC1F3950F50E0C3
:10057000551F629FF001729FBB27F00DB11D639F55
:10058000AA27F00DB11DAA1F649F6627B00DA11DFB
:10059000661F829F2227B00DA11D621F739FB00DA1
:1005A000A11D621F839FA00D611D221F749F332711
:1005B000A00D611D231F849F600D211D822F762FAA
:1005C0006A2F11249F5750409AF0F1F088234AF087
:1005D000EE0FFF1FBB1F661F771F881F91505040F3
:1005E000A9F79E3F510580F00C9448020C949302A9
:1005F0005F3FE4F3983ED4F3869577956795B7957A
:10060000F795E7959F5FC1F7FE2B880F911D969593
:0A061000879597F90895F894FFCF3D
:00000001FF
