:100000000C9434000C9451000C9451000C94510049
:100010000C9451000C9451000C9451000C9451001C
:100020000C9451000C9451000C9451000C9451000C
:100030000C9451000C9451000C9451000C945100FC
:100040000C9475000C9451000C9451000C945100C8
:100050000C9451000C9451000C9451000C945100DC
:100060000C9451000C94510011241FBECFEFD4E02A
:10007000DEBFCDBF11E0A0E0B1E0E6E6F6E002C0F1
:1000800005900D92A230B107D9F721E0A2E0B1E0CE
:1000900001C01D92A630B207E1F70E9453000C94F4
:1000A00031030C94000080E48AB983E884BD81E0C8
:1000B00080936E00789485E085BD20E030E048ECC8
:1000C00052E46091020170910301809104019091CA
:1000D00005010E94A90120E030E04FE753E40E94AF
:1000E000C4020E941B0267BDFFCF1F920F920FB682
:1000F0000F921124CF92DF92EF92FF922F933F93B2
:100100004F935F936F937F938F939F93AF93BF931F
:10011000EF93FF93C0900201D0900301E09004019F
:10012000F090050120E030E0A901C701B6010E946E
:10013000A40188234CF41092020110920301109242
:1001400004011092050116C020E030E048EC52E4B2
:10015000C701B6010E94BF02181664F480E090E067
:10016000A8ECB2E48093020190930301A0930401F0
:10017000B093050120E030E048EC52E460910201C8
:100180007091030180910401909105010E94A901E1
:1001900020E030E04FE753E40E94C4020E941B02BB
:1001A00067BDC0900201D0900301E0900401F0907F
:1001B000050120E030E048EC52E4C701B6010E949E
:1001C000BF0288232CF010920101109200012AC076
:1001D00020E030E0A901C701B6010E94A401181671
:1001E0003CF081E090E0909301018093000107C012
:1001F00080910001909101018130910589F425E8F9
:100200003BEE41ED5FE3C701B6010E943801609308
:10021000020170930301809304019093050112C0C1
:10022000892B81F425E83BEE41ED5FE3C701B60180
:100230000E943701609302017093030180930401CF
:1002400090930501FF91EF91BF91AF919F918F9195
:100250007F916F915F914F913F912F91FF90EF9020
:10026000DF90CF900F900FBE0F901F9018955058B1
:10027000BB27AA270E944F010C9485020E94770297
:1002800038F00E947E0220F039F49F3F19F426F4E2
:100290000C9474020EF4E095E7FB0C946E02E92FC7
:1002A0000E94960258F3BA176207730784079507EE
:1002B00020F079F4A6F50C94B8020EF4E0950B2E1C
:1002C000BA2FA02D0B01B90190010C01CA01A001A8
:1002D0001124FF27591B99F0593F50F4503E68F103
:1002E0001A16F040A22F232F342F4427585FF3CF44
:1002F000469537952795A795F0405395C9F77EF415
:100300001F16BA0B620B730B840BBAF09150A1F05D
:10031000FF0FBB1F661F771F881FC2F70EC0BA0FE3
:10032000621F731F841F48F4879577956795B7956B
:10033000F7959E3F08F0B0CF9395880F08F0992766
:10034000EE0F9795879508950E944A0208F481E080
:1003500008950E94BD010C9485020E947E0258F00F
:100360000E94770240F029F45F3F29F00C946E025E
:1003700051110C94B9020C9474020E94960268F315
:100380009923B1F3552391F3951B550BBB27AA274E
:1003900062177307840738F09F5F5F4F220F331F88
:1003A000441FAA1FA9F335D00E2E3AF0E0E832D050
:1003B00091505040E695001CCAF72BD0FE2F29D053
:1003C000660F771F881FBB1F261737074807AB0725
:1003D000B0E809F0BB0B802DBF01FF2793585F4F9A
:1003E0003AF09E3F510578F00C946E020C94B902DD
:1003F0005F3FE4F3983ED4F3869577956795B7957C
:10040000F7959F5FC9F7880F911D9695879597F986
:100410000895E1E0660F771F881FBB1F62177307FF
:100420008407BA0720F0621B730B840BBA0BEE1F14
:1004300088F7E09508950E949E0288F09F5798F0F3
:10044000B92F9927B751B0F0E1F0660F771F881FD9
:10045000991F1AF0BA95C9F714C0B13091F00E94F3
:10046000B802B1E008950C94B802672F782F88275E
:10047000B85F39F0B93FCCF3869577956795B3951A
:10048000D9F73EF490958095709561957F4F8F4F89
:100490009F4F0895990F0008550FAA0BE0E8FEEF53
:1004A00016161706E807F907C0F012161306E40738
:1004B000F50798F0621B730B840B950B39F40A2631
:1004C00061F0232B242B252B21F408950A2609F40F
:1004D000A140A6958FEF811D811D089597F99F6713
:1004E00080E870E060E008959FEF80EC08950024BC
:1004F0000A941616170618060906089500240A9489
:1005000012161306140605060895092E0394000C0E
:1005100011F4882352F0BB0F40F4BF2B11F460FF9D
:1005200004C06F5F7F4F8F4F9F4F089557FD9058C6
:10053000440F551F59F05F3F71F04795880F97FBA7
:10054000991F61F09F3F79F0879508951216130661
:100550001406551FF2CF4695F1DF08C01616170690
:100560001806991FF1CF86957105610508940895C5
:10057000E894BB2766277727CB0197F908950E9457
:100580004A0208F48FEF08950E94D7020C94850266
:100590000E94770238F00E947E0220F0952311F02D
:1005A0000C946E020C94740211240C94B9020E94F3
:1005B000960270F3959FC1F3950F50E0551F629F0F
:1005C000F001729FBB27F00DB11D639FAA27F00DAC
:1005D000B11DAA1F649F6627B00DA11D661F829FD3
:1005E0002227B00DA11D621F739FB00DA11D621FB8
:1005F000839FA00D611D221F749F3327A00D611DD5
:10060000231F849F600D211D822F762F6A2F1124B6
:100610009F5750409AF0F1F088234AF0EE0FFF1FE9
:10062000BB1F661F771F881F91505040A9F79E3F40
:10063000510580F00C946E020C94B9025F3FE4F314
:10064000983ED4F3869577956795B795F795E79596
:100650009F5FC1F7FE2B880F911D9695879597F99F
:060660000895F894FFCF9D
:02066600010091
:00000001FF
