:100000000C9434000C9446000C9446000C94590057
:100010000C9446000C9446000C9446000C94460048
:100020000C9446000C9446000C9446000C94460038
:100030000C9446000C9446000C9446000C94460028
:100040000C9446000C9446000C9446000C94460018
:100050000C9446000C9446000C9446000C94460008
:100060000C9446000C94460011241FBECFEFD4E040
:10007000DEBFCDBF21E0A0E0B1E001C01D92A13004
:10008000B207E1F70E9448000C9475000C94000040
:1000900014B880E48AB9EBE6F0E080818160808367
:1000A000E8E6F0E0808181608083789480E090E0F1
:1000B00008951F920F920FB60F9211248F939F9362
:1000C0009091000181E0892780930001882329F025
:1000D0005E9A80910001811101C05E989F918F917D
:0E00E0000F900FBE0F901F901895F894FFCF51
:00000001FF
