S01300004F70706761766520362E322E7372656389
S11300000C9434000C9449000C9449000C9449005D
S11300100C9449000C9449000C9449000C94490038
S11300200C9449000C9449000C9449000C94490028
S11300300C9449000C9475000C9449000C944900EC
S11300400C9449000C9449000C9449000C94490008
S11300500C9449000C9449000C9449000C944900F8
S11300600C9449000C94490011241FBECFEFD4E036
S1130070DEBFCDBF11E0A0E0B1E0E0ECF3E002C0F0
S113008005900D92A430B107D9F70E9472000C9428
S1130090DE010C94000082E084B98BE88093800038
S11300A081E080936F00789485E08093810020E064
S11300B030E048EC52E460910001709101018091BC
S11300C00201909103010E947F0020E030EC4FE791
S11300D054E40E9471010E94F100709389006093BE
S11300E0880008950E944B00FFCF1F920F920FB615
S11300F00F9211240F900FBE0F901F9018950E941D
S113010093000C9437010E94300158F00E94290199
S113011040F029F45F3F29F00C94200151110C9414
S11301206B010C9426010E94480168F39923B1F3F2
S1130130552391F3951B550BBB27AA276217730709
S1130140840738F09F5F5F4F220F331F441FAA1F9D
S1130150A9F335D00E2E3AF0E0E832D09150504059
S1130160E695001CCAF72BD0FE2F29D0660F771F07
S1130170881FBB1F261737074807AB07B0E809F0ED
S1130180BB0B802DBF01FF2793585F4F3AF09E3F72
S1130190510578F00C9420010C946B015F3FE4F35B
S11301A0983ED4F3869577956795B795F7959F5FB5
S11301B0C9F7880F911D9695879597F90895E1E001
S11301C0660F771F881FBB1F621773078407BA0760
S11301D020F0621B730B840BBA0BEE1F88F7E095BB
S11301E008950E94500188F09F5798F0B92F9927DD
S11301F0B751B0F0E1F0660F771F881F991F1AF00E
S1130200BA95C9F714C0B13091F00E946A01B1E007
S113021008950C946A01672F782F8827B85F39F006
S1130220B93FCCF3869577956795B395D9F73EF4A6
S113023090958095709561957F4F8F4F9F4F08954E
S113024097F99F6780E870E060E008959FEF80EC85
S1130250089500240A941616170618060906089528
S113026000240A9412161306140605060895092E8E
S11302700394000C11F4882352F0BB0F40F4BF2BFD
S113028011F460FF04C06F5F7F4F8F4F9F4F08953D
S113029057FD9058440F551F59F05F3F71F0479533
S11302A0880F97FB991F61F09F3F79F08795089518
S11302B0121613061406551FF2CF4695F1DF08C037
S11302C0161617061806991FF1CF86957105610554
S11302D008940895E894BB2766277727CB0197F9FC
S11302E008950E9484010C9437010E94290138F07A
S11302F00E94300120F0952311F00C9420010C94FD
S1130300260111240C946B010E94480170F3959FFF
S1130310C1F3950F50E0551F629FF001729FBB27F8
S1130320F00DB11D639FAA27F00DB11DAA1F649F94
S11303306627B00DA11D661F829F2227B00DA11D47
S1130340621F739FB00DA11D621F839FA00D611DCD
S1130350221F749F3327A00D611D231F849F600DEE
S1130360211D822F762F6A2F11249F5750409AF017
S1130370F1F088234AF0EE0FFF1FBB1F661F771FA3
S1130380881F91505040A9F79E3F510580F00C946E
S113039020010C946B015F3FE4F3983ED4F38695FF
S11303A077956795B795F795E7959F5FC1F7FE2B0E
S11303B0880F911D9695879597F90895F894FFCF26
S10703C00000C8422B
S9030000FC
