:100000000C9434000C9449000C9449000C94490061
:100010000C9449000C9449000C9449000C9449003C
:100020000C9449000C9449000C9449000C9449002C
:100030000C9449000C946F000C9449000C944900F6
:100040000C9449000C9449000C9449000C9449000C
:100050000C9449000C9449000C9449000C944900FC
:100060000C9449000C94490011241FBECFEFD4E03A
:10007000DEBFCDBF11E0A0E0B1E0E4EBF3E002C0F1
:1000800005900D92A430B107D9F70E946C000C9432
:10009000D8010C940000569A83E884BD81E08093D7
:1000A0006E00789484E085BD20E030E048EC52E4B6
:1000B0006091000170910101809102019091030112
:1000C0000E94790020E030E04FE753E40E946B018A
:1000D0000E94EB0067BD08950E944B00FFCF1F9266
:1000E0000F920FB60F9211240F900FBE0F901F901A
:1000F00018950E948D000C9431010E942A0158F03D
:100100000E94230140F029F45F3F29F00C941A016A
:1001100051110C9465010C9420010E94420168F376
:100120009923B1F3552391F3951B550BBB27AA27B0
:1001300062177307840738F09F5F5F4F220F331FEA
:10014000441FAA1FA9F335D00E2E3AF0E0E832D0B2
:1001500091505040E695001CCAF72BD0FE2F29D0B5
:10016000660F771F881FBB1F261737074807AB0787
:10017000B0E809F0BB0B802DBF01FF2793585F4FFC
:100180003AF09E3F510578F00C941A010C946501E9
:100190005F3FE4F3983ED4F3869577956795B795DE
:1001A000F7959F5FC9F7880F911D9695879597F9E9
:1001B0000895E1E0660F771F881FBB1F6217730762
:1001C0008407BA0720F0621B730B840BBA0BEE1F77
:1001D00088F7E09508950E944A0188F09F5798F0AB
:1001E000B92F9927B751B0F0E1F0660F771F881F3C
:1001F000991F1AF0BA95C9F714C0B13091F00E9456
:100200006401B1E008950C946401672F782F88276A
:10021000B85F39F0B93FCCF3869577956795B3957C
:10022000D9F73EF490958095709561957F4F8F4FEB
:100230009F4F089597F99F6780E870E060E0089508
:100240009FEF80EC089500240A94161617061806EE
:100250000906089500240A941216130614060506CA
:100260000895092E0394000C11F4882352F0BB0F5B
:1002700040F4BF2B11F460FF04C06F5F7F4F8F4FBE
:100280009F4F089557FD9058440F551F59F05F3FF9
:1002900071F04795880F97FB991F61F09F3F79F0A8
:1002A00087950895121613061406551FF2CF46952A
:1002B000F1DF08C0161617061806991FF1CF8695AC
:1002C0007105610508940895E894BB276627772790
:1002D000CB0197F908950E947E010C9431010E9490
:1002E000230138F00E942A0120F0952311F00C948C
:1002F0001A010C94200111240C9465010E94420102
:1003000070F3959FC1F3950F50E0551F629FF00168
:10031000729FBB27F00DB11D639FAA27F00DB11D81
:10032000AA1F649F6627B00DA11D661F829F22270A
:10033000B00DA11D621F739FB00DA11D621F839F91
:10034000A00D611D221F749F3327A00D611D231F67
:10035000849F600D211D822F762F6A2F11249F57B5
:1003600050409AF0F1F088234AF0EE0FFF1FBB1FB8
:10037000661F771F881F91505040A9F79E3F510577
:1003800080F00C941A010C9465015F3FE4F3983EF1
:10039000D4F3869577956795B795F795E7959F5F21
:1003A000C1F7FE2B880F911D9695879597F90895B3
:0403B000F894FFCFEF
:0403B40000008C4277
:00000001FF
